{
  "contractName": "AgPay",
  "abi": [
    {
      "constant": true,
      "inputs": [
        {
          "name": "",
          "type": "address"
        }
      ],
      "name": "registry",
      "outputs": [
        {
          "name": "checker",
          "type": "address"
        },
        {
          "name": "worker",
          "type": "address"
        },
        {
          "name": "approvedBychecker",
          "type": "bool"
        },
        {
          "name": "approvedByworker",
          "type": "bool"
        },
        {
          "name": "pieceCondition",
          "type": "string"
        },
        {
          "name": "employmentContract",
          "type": "string"
        },
        {
          "name": "pieceWeight",
          "type": "uint256"
        },
        {
          "name": "pueceRate",
          "type": "uint256"
        },
        {
          "name": "date",
          "type": "uint256"
        }
      ],
      "payable": false,
      "stateMutability": "view",
      "type": "function"
    },
    {
      "constant": true,
      "inputs": [
        {
          "name": "",
          "type": "uint256"
        }
      ],
      "name": "addressArray",
      "outputs": [
        {
          "name": "",
          "type": "address"
        }
      ],
      "payable": false,
      "stateMutability": "view",
      "type": "function"
    },
    {
      "constant": true,
      "inputs": [],
      "name": "worker",
      "outputs": [
        {
          "name": "",
          "type": "address"
        }
      ],
      "payable": false,
      "stateMutability": "view",
      "type": "function"
    },
    {
      "constant": true,
      "inputs": [],
      "name": "checker",
      "outputs": [
        {
          "name": "",
          "type": "address"
        }
      ],
      "payable": false,
      "stateMutability": "view",
      "type": "function"
    },
    {
      "constant": true,
      "inputs": [
        {
          "name": "",
          "type": "address"
        }
      ],
      "name": "pieceEntries",
      "outputs": [
        {
          "name": "checker",
          "type": "address"
        },
        {
          "name": "worker",
          "type": "address"
        },
        {
          "name": "approvedBychecker",
          "type": "bool"
        },
        {
          "name": "approvedByworker",
          "type": "bool"
        },
        {
          "name": "pieceCondition",
          "type": "string"
        },
        {
          "name": "employmentContract",
          "type": "string"
        },
        {
          "name": "pieceWeight",
          "type": "uint256"
        },
        {
          "name": "pueceRate",
          "type": "uint256"
        },
        {
          "name": "date",
          "type": "uint256"
        }
      ],
      "payable": false,
      "stateMutability": "view",
      "type": "function"
    },
    {
      "anonymous": false,
      "inputs": [
        {
          "indexed": false,
          "name": "checker",
          "type": "address"
        },
        {
          "indexed": false,
          "name": "worker",
          "type": "address"
        },
        {
          "indexed": false,
          "name": "approvedBychecker",
          "type": "bool"
        },
        {
          "indexed": false,
          "name": "approvedByworker",
          "type": "bool"
        },
        {
          "indexed": false,
          "name": "pieceCondition",
          "type": "string"
        },
        {
          "indexed": false,
          "name": "employmentContract",
          "type": "string"
        },
        {
          "indexed": false,
          "name": "pieceWeight",
          "type": "uint256"
        },
        {
          "indexed": false,
          "name": "pueceRate",
          "type": "uint256"
        },
        {
          "indexed": false,
          "name": "date",
          "type": "uint256"
        }
      ],
      "name": "Record",
      "type": "event"
    },
    {
      "constant": false,
      "inputs": [
        {
          "name": "checker",
          "type": "address"
        },
        {
          "name": "worker",
          "type": "address"
        },
        {
          "name": "approvedBychecker",
          "type": "bool"
        },
        {
          "name": "approvedByworker",
          "type": "bool"
        },
        {
          "name": "pieceCondition",
          "type": "string"
        },
        {
          "name": "employmentContract",
          "type": "string"
        },
        {
          "name": "pieceWeight",
          "type": "uint256"
        },
        {
          "name": "pueceRate",
          "type": "uint256"
        },
        {
          "name": "date",
          "type": "uint256"
        }
      ],
      "name": "record",
      "outputs": [],
      "payable": false,
      "stateMutability": "nonpayable",
      "type": "function"
    },
    {
      "constant": true,
      "inputs": [],
      "name": "getAddresses",
      "outputs": [
        {
          "name": "",
          "type": "address[]"
        }
      ],
      "payable": false,
      "stateMutability": "view",
      "type": "function"
    },
    {
      "constant": true,
      "inputs": [
        {
          "name": "_address",
          "type": "address"
        }
      ],
      "name": "getPieceEntry",
      "outputs": [
        {
          "name": "",
          "type": "address"
        },
        {
          "name": "",
          "type": "address"
        },
        {
          "name": "",
          "type": "string"
        },
        {
          "name": "",
          "type": "string"
        },
        {
          "name": "",
          "type": "uint256"
        },
        {
          "name": "",
          "type": "uint256"
        },
        {
          "name": "",
          "type": "uint256"
        }
      ],
      "payable": false,
      "stateMutability": "view",
      "type": "function"
    }
  ],
  "bytecode": "0x608060405234801561001057600080fd5b506113a6806100206000396000f30060806040526004361061008e576000357c0100000000000000000000000000000000000000000000000000000000900463ffffffff168063038defd7146100935780630f96cf341461024c5780634d547ada146102b957806367a135c614610310578063a39fac1214610435578063bf5fc53a146104a1578063cf5303cf14610644578063fda772ce1461069b575b600080fd5b34801561009f57600080fd5b506100d4600480360381019080803573ffffffffffffffffffffffffffffffffffffffff169060200190929190505050610854565b604051808a73ffffffffffffffffffffffffffffffffffffffff1673ffffffffffffffffffffffffffffffffffffffff1681526020018973ffffffffffffffffffffffffffffffffffffffff1673ffffffffffffffffffffffffffffffffffffffff16815260200188151515158152602001871515151581526020018060200180602001868152602001858152602001848152602001838103835288818151815260200191508051906020019080838360005b838110156101a2578082015181840152602081019050610187565b50505050905090810190601f1680156101cf5780820380516001836020036101000a031916815260200191505b50838103825287818151815260200191508051906020019080838360005b838110156102085780820151818401526020810190506101ed565b50505050905090810190601f1680156102355780820380516001836020036101000a031916815260200191505b509b50505050505050505050505060405180910390f35b34801561025857600080fd5b5061027760048036038101908080359060200190929190505050610a2c565b604051808273ffffffffffffffffffffffffffffffffffffffff1673ffffffffffffffffffffffffffffffffffffffff16815260200191505060405180910390f35b3480156102c557600080fd5b506102ce610a6a565b604051808273ffffffffffffffffffffffffffffffffffffffff1673ffffffffffffffffffffffffffffffffffffffff16815260200191505060405180910390f35b34801561031c57600080fd5b50610433600480360381019080803573ffffffffffffffffffffffffffffffffffffffff169060200190929190803573ffffffffffffffffffffffffffffffffffffffff169060200190929190803515159060200190929190803515159060200190929190803590602001908201803590602001908080601f0160208091040260200160405190810160405280939291908181526020018383808284378201915050505050509192919290803590602001908201803590602001908080601f0160208091040260200160405190810160405280939291908181526020018383808284378201915050505050509192919290803590602001909291908035906020019092919080359060200190929190505050610a90565b005b34801561044157600080fd5b5061044a610cdb565b6040518080602001828103825283818151815260200191508051906020019060200280838360005b8381101561048d578082015181840152602081019050610472565b505050509050019250505060405180910390f35b3480156104ad57600080fd5b506104e2600480360381019080803573ffffffffffffffffffffffffffffffffffffffff169060200190929190505050610d69565b604051808873ffffffffffffffffffffffffffffffffffffffff1673ffffffffffffffffffffffffffffffffffffffff1681526020018773ffffffffffffffffffffffffffffffffffffffff1673ffffffffffffffffffffffffffffffffffffffff1681526020018060200180602001868152602001858152602001848152602001838103835288818151815260200191508051906020019080838360005b8381101561059c578082015181840152602081019050610581565b50505050905090810190601f1680156105c95780820380516001836020036101000a031916815260200191505b50838103825287818151815260200191508051906020019080838360005b838110156106025780820151818401526020810190506105e7565b50505050905090810190601f16801561062f5780820380516001836020036101000a031916815260200191505b50995050505050505050505060405180910390f35b34801561065057600080fd5b506106596110d8565b604051808273ffffffffffffffffffffffffffffffffffffffff1673ffffffffffffffffffffffffffffffffffffffff16815260200191505060405180910390f35b3480156106a757600080fd5b506106dc600480360381019080803573ffffffffffffffffffffffffffffffffffffffff1690602001909291905050506110fd565b604051808a73ffffffffffffffffffffffffffffffffffffffff1673ffffffffffffffffffffffffffffffffffffffff1681526020018973ffffffffffffffffffffffffffffffffffffffff1673ffffffffffffffffffffffffffffffffffffffff16815260200188151515158152602001871515151581526020018060200180602001868152602001858152602001848152602001838103835288818151815260200191508051906020019080838360005b838110156107aa57808201518184015260208101905061078f565b50505050905090810190601f1680156107d75780820380516001836020036101000a031916815260200191505b50838103825287818151815260200191508051906020019080838360005b838110156108105780820151818401526020810190506107f5565b50505050905090810190601f16801561083d5780820380516001836020036101000a031916815260200191505b509b50505050505050505050505060405180910390f35b60046020528060005260406000206000915090508060000160009054906101000a900473ffffffffffffffffffffffffffffffffffffffff16908060010160009054906101000a900473ffffffffffffffffffffffffffffffffffffffff16908060010160149054906101000a900460ff16908060010160159054906101000a900460ff1690806002018054600181600116156101000203166002900480601f0160208091040260200160405190810160405280929190818152602001828054600181600116156101000203166002900480156109725780601f1061094757610100808354040283529160200191610972565b820191906000526020600020905b81548152906001019060200180831161095557829003601f168201915b505050505090806003018054600181600116156101000203166002900480601f016020809104026020016040519081016040528092919081815260200182805460018160011615610100020316600290048015610a105780601f106109e557610100808354040283529160200191610a10565b820191906000526020600020905b8154815290600101906020018083116109f357829003601f168201915b5050505050908060040154908060050154908060060154905089565b600281815481101515610a3b57fe5b906000526020600020016000915054906101000a900473ffffffffffffffffffffffffffffffffffffffff1681565b600160009054906101000a900473ffffffffffffffffffffffffffffffffffffffff1681565b60023390806001815401808255809150509060018203906000526020600020016000909192909190916101000a81548173ffffffffffffffffffffffffffffffffffffffff021916908373ffffffffffffffffffffffffffffffffffffffff16021790555050610120604051908101604052808a73ffffffffffffffffffffffffffffffffffffffff1681526020018973ffffffffffffffffffffffffffffffffffffffff1681526020018815158152602001871515815260200186815260200185815260200184815260200183815260200182815250600360003373ffffffffffffffffffffffffffffffffffffffff1673ffffffffffffffffffffffffffffffffffffffff16815260200190815260200160002060008201518160000160006101000a81548173ffffffffffffffffffffffffffffffffffffffff021916908373ffffffffffffffffffffffffffffffffffffffff16021790555060208201518160010160006101000a81548173ffffffffffffffffffffffffffffffffffffffff021916908373ffffffffffffffffffffffffffffffffffffffff16021790555060408201518160010160146101000a81548160ff02191690831515021790555060608201518160010160156101000a81548160ff0219169083151502179055506080820151816002019080519060200190610c909291906112d5565b5060a0820151816003019080519060200190610cad9291906112d5565b5060c0820151816004015560e082015181600501556101008201518160060155905050505050505050505050565b60606002805480602002602001604051908101604052809291908181526020018280548015610d5f57602002820191906000526020600020905b8160009054906101000a900473ffffffffffffffffffffffffffffffffffffffff1673ffffffffffffffffffffffffffffffffffffffff1681526020019060010190808311610d15575b5050505050905090565b6000806060806000806000600360008973ffffffffffffffffffffffffffffffffffffffff1673ffffffffffffffffffffffffffffffffffffffff16815260200190815260200160002060000160009054906101000a900473ffffffffffffffffffffffffffffffffffffffff16600360008a73ffffffffffffffffffffffffffffffffffffffff1673ffffffffffffffffffffffffffffffffffffffff16815260200190815260200160002060010160009054906101000a900473ffffffffffffffffffffffffffffffffffffffff16600360008b73ffffffffffffffffffffffffffffffffffffffff1673ffffffffffffffffffffffffffffffffffffffff168152602001908152602001600020600201600360008c73ffffffffffffffffffffffffffffffffffffffff1673ffffffffffffffffffffffffffffffffffffffff168152602001908152602001600020600301600360008d73ffffffffffffffffffffffffffffffffffffffff1673ffffffffffffffffffffffffffffffffffffffff16815260200190815260200160002060040154600360008e73ffffffffffffffffffffffffffffffffffffffff1673ffffffffffffffffffffffffffffffffffffffff16815260200190815260200160002060050154600360008f73ffffffffffffffffffffffffffffffffffffffff1673ffffffffffffffffffffffffffffffffffffffff16815260200190815260200160002060060154848054600181600116156101000203166002900480601f01602080910402602001604051908101604052809291908181526020018280546001816001161561010002031660029004801561101c5780601f10610ff15761010080835404028352916020019161101c565b820191906000526020600020905b815481529060010190602001808311610fff57829003601f168201915b50505050509450838054600181600116156101000203166002900480601f0160208091040260200160405190810160405280929190818152602001828054600181600116156101000203166002900480156110b85780601f1061108d576101008083540402835291602001916110b8565b820191906000526020600020905b81548152906001019060200180831161109b57829003601f168201915b505050505093509650965096509650965096509650919395979092949650565b6000809054906101000a900473ffffffffffffffffffffffffffffffffffffffff1681565b60036020528060005260406000206000915090508060000160009054906101000a900473ffffffffffffffffffffffffffffffffffffffff16908060010160009054906101000a900473ffffffffffffffffffffffffffffffffffffffff16908060010160149054906101000a900460ff16908060010160159054906101000a900460ff1690806002018054600181600116156101000203166002900480601f01602080910402602001604051908101604052809291908181526020018280546001816001161561010002031660029004801561121b5780601f106111f05761010080835404028352916020019161121b565b820191906000526020600020905b8154815290600101906020018083116111fe57829003601f168201915b505050505090806003018054600181600116156101000203166002900480601f0160208091040260200160405190810160405280929190818152602001828054600181600116156101000203166002900480156112b95780601f1061128e576101008083540402835291602001916112b9565b820191906000526020600020905b81548152906001019060200180831161129c57829003601f168201915b5050505050908060040154908060050154908060060154905089565b828054600181600116156101000203166002900490600052602060002090601f016020900481019282601f1061131657805160ff1916838001178555611344565b82800160010185558215611344579182015b82811115611343578251825591602001919060010190611328565b5b5090506113519190611355565b5090565b61137791905b8082111561137357600081600090555060010161135b565b5090565b905600a165627a7a72305820b08127b02304a22a7789e056556274c5096b3ea6c0680091bd29ac26fab555ea0029",
  "source": "pragma solidity ^0.4.21;\ncontract AgPay {\n    address public checker;\n    address public worker;\n    address[] public addressArray;\n    struct pieceEntry {\n        address checker;\n        address worker;\n        bool approvedBychecker;\n        bool approvedByworker;\n        string pieceCondition;\n        string employmentContract;\n        uint pieceWeight;\n        uint pueceRate;\n        uint date;\n    }\n    // this data is all publicly explorable\n    mapping(address => pieceEntry) public pieceEntries;\n    //record\n   // emit event print(uint )\n    event Record(address checker, address worker,bool approvedBychecker, bool approvedByworker,\n        string pieceCondition, string employmentContract, uint pieceWeight, uint pueceRate,\n        uint date);\n        \n    function record(address checker, address worker, bool approvedBychecker, bool approvedByworker,\n        string pieceCondition, string employmentContract, uint pieceWeight, uint pueceRate,\n        uint date) public {\n        addressArray.push(msg.sender);\n        pieceEntries[msg.sender] = pieceEntry(checker,\n        worker,\n        approvedBychecker,\n        approvedByworker,\n        pieceCondition,\n        employmentContract,\n        pieceWeight,\n        pueceRate,\n        date);\n}\n    function getAddresses() view public returns (address[]) {\n        return addressArray;\n    }\n    mapping (address => pieceEntry) public registry;\n    \n    \n    function getPieceEntry(address _address) public view returns (address, address, string, string, uint, uint, uint) {\n        return (pieceEntries[_address].checker, pieceEntries[_address].worker,  pieceEntries[_address].pieceCondition, pieceEntries[_address].employmentContract, pieceEntries[_address].pieceWeight, pieceEntries[_address].pueceRate, pieceEntries[_address].date);\n    }\n    //view fx\n}",
  "sourcePath": "/Users/jonah/Desktop/Personal/truffle-react/contracts/agPay.sol",
  "compiler": {
    "name": "solc",
    "version": "0.4.23+commit.124ca40d.Emscripten.clang"
  },
  "schemaVersion": "2.0.0",
  "updatedAt": "2018-04-29T03:39:33.077Z"
}